{
  "_format": "hh-sol-artifact-1",
  "contractName": "Tasky",
  "sourceName": "contracts/Tasky.sol",
  "abi": [
    {
      "inputs": [],
      "stateMutability": "nonpayable",
      "type": "constructor"
    },
    {
      "inputs": [
        {
          "internalType": "address",
          "name": "sender",
          "type": "address"
        },
        {
          "internalType": "uint256",
          "name": "tokenId",
          "type": "uint256"
        },
        {
          "internalType": "address",
          "name": "owner",
          "type": "address"
        }
      ],
      "name": "ERC721IncorrectOwner",
      "type": "error"
    },
    {
      "inputs": [
        {
          "internalType": "address",
          "name": "operator",
          "type": "address"
        },
        {
          "internalType": "uint256",
          "name": "tokenId",
          "type": "uint256"
        }
      ],
      "name": "ERC721InsufficientApproval",
      "type": "error"
    },
    {
      "inputs": [
        {
          "internalType": "address",
          "name": "approver",
          "type": "address"
        }
      ],
      "name": "ERC721InvalidApprover",
      "type": "error"
    },
    {
      "inputs": [
        {
          "internalType": "address",
          "name": "operator",
          "type": "address"
        }
      ],
      "name": "ERC721InvalidOperator",
      "type": "error"
    },
    {
      "inputs": [
        {
          "internalType": "address",
          "name": "owner",
          "type": "address"
        }
      ],
      "name": "ERC721InvalidOwner",
      "type": "error"
    },
    {
      "inputs": [
        {
          "internalType": "address",
          "name": "receiver",
          "type": "address"
        }
      ],
      "name": "ERC721InvalidReceiver",
      "type": "error"
    },
    {
      "inputs": [
        {
          "internalType": "address",
          "name": "sender",
          "type": "address"
        }
      ],
      "name": "ERC721InvalidSender",
      "type": "error"
    },
    {
      "inputs": [
        {
          "internalType": "uint256",
          "name": "tokenId",
          "type": "uint256"
        }
      ],
      "name": "ERC721NonexistentToken",
      "type": "error"
    },
    {
      "inputs": [
        {
          "internalType": "address",
          "name": "owner",
          "type": "address"
        }
      ],
      "name": "OwnableInvalidOwner",
      "type": "error"
    },
    {
      "inputs": [
        {
          "internalType": "address",
          "name": "account",
          "type": "address"
        }
      ],
      "name": "OwnableUnauthorizedAccount",
      "type": "error"
    },
    {
      "anonymous": false,
      "inputs": [
        {
          "indexed": true,
          "internalType": "address",
          "name": "owner",
          "type": "address"
        },
        {
          "indexed": true,
          "internalType": "address",
          "name": "approved",
          "type": "address"
        },
        {
          "indexed": true,
          "internalType": "uint256",
          "name": "tokenId",
          "type": "uint256"
        }
      ],
      "name": "Approval",
      "type": "event"
    },
    {
      "anonymous": false,
      "inputs": [
        {
          "indexed": true,
          "internalType": "address",
          "name": "owner",
          "type": "address"
        },
        {
          "indexed": true,
          "internalType": "address",
          "name": "operator",
          "type": "address"
        },
        {
          "indexed": false,
          "internalType": "bool",
          "name": "approved",
          "type": "bool"
        }
      ],
      "name": "ApprovalForAll",
      "type": "event"
    },
    {
      "anonymous": false,
      "inputs": [
        {
          "indexed": true,
          "internalType": "address",
          "name": "previousOwner",
          "type": "address"
        },
        {
          "indexed": true,
          "internalType": "address",
          "name": "newOwner",
          "type": "address"
        }
      ],
      "name": "OwnershipTransferred",
      "type": "event"
    },
    {
      "anonymous": false,
      "inputs": [
        {
          "indexed": true,
          "internalType": "address",
          "name": "from",
          "type": "address"
        },
        {
          "indexed": true,
          "internalType": "address",
          "name": "to",
          "type": "address"
        },
        {
          "indexed": true,
          "internalType": "uint256",
          "name": "tokenId",
          "type": "uint256"
        }
      ],
      "name": "Transfer",
      "type": "event"
    },
    {
      "inputs": [
        {
          "internalType": "address",
          "name": "to",
          "type": "address"
        },
        {
          "internalType": "uint256",
          "name": "tokenId",
          "type": "uint256"
        }
      ],
      "name": "approve",
      "outputs": [],
      "stateMutability": "nonpayable",
      "type": "function"
    },
    {
      "inputs": [
        {
          "internalType": "address",
          "name": "owner",
          "type": "address"
        }
      ],
      "name": "balanceOf",
      "outputs": [
        {
          "internalType": "uint256",
          "name": "",
          "type": "uint256"
        }
      ],
      "stateMutability": "view",
      "type": "function"
    },
    {
      "inputs": [
        {
          "internalType": "uint256",
          "name": "tokenId",
          "type": "uint256"
        }
      ],
      "name": "getApproved",
      "outputs": [
        {
          "internalType": "address",
          "name": "",
          "type": "address"
        }
      ],
      "stateMutability": "view",
      "type": "function"
    },
    {
      "inputs": [
        {
          "internalType": "address",
          "name": "owner",
          "type": "address"
        },
        {
          "internalType": "address",
          "name": "operator",
          "type": "address"
        }
      ],
      "name": "isApprovedForAll",
      "outputs": [
        {
          "internalType": "bool",
          "name": "",
          "type": "bool"
        }
      ],
      "stateMutability": "view",
      "type": "function"
    },
    {
      "inputs": [],
      "name": "name",
      "outputs": [
        {
          "internalType": "string",
          "name": "",
          "type": "string"
        }
      ],
      "stateMutability": "view",
      "type": "function"
    },
    {
      "inputs": [],
      "name": "owner",
      "outputs": [
        {
          "internalType": "address",
          "name": "",
          "type": "address"
        }
      ],
      "stateMutability": "view",
      "type": "function"
    },
    {
      "inputs": [
        {
          "internalType": "uint256",
          "name": "tokenId",
          "type": "uint256"
        }
      ],
      "name": "ownerOf",
      "outputs": [
        {
          "internalType": "address",
          "name": "",
          "type": "address"
        }
      ],
      "stateMutability": "view",
      "type": "function"
    },
    {
      "inputs": [],
      "name": "renounceOwnership",
      "outputs": [],
      "stateMutability": "nonpayable",
      "type": "function"
    },
    {
      "inputs": [
        {
          "internalType": "address",
          "name": "to",
          "type": "address"
        }
      ],
      "name": "safeMint",
      "outputs": [],
      "stateMutability": "nonpayable",
      "type": "function"
    },
    {
      "inputs": [
        {
          "internalType": "address",
          "name": "from",
          "type": "address"
        },
        {
          "internalType": "address",
          "name": "to",
          "type": "address"
        },
        {
          "internalType": "uint256",
          "name": "tokenId",
          "type": "uint256"
        }
      ],
      "name": "safeTransferFrom",
      "outputs": [],
      "stateMutability": "nonpayable",
      "type": "function"
    },
    {
      "inputs": [
        {
          "internalType": "address",
          "name": "from",
          "type": "address"
        },
        {
          "internalType": "address",
          "name": "to",
          "type": "address"
        },
        {
          "internalType": "uint256",
          "name": "tokenId",
          "type": "uint256"
        },
        {
          "internalType": "bytes",
          "name": "data",
          "type": "bytes"
        }
      ],
      "name": "safeTransferFrom",
      "outputs": [],
      "stateMutability": "nonpayable",
      "type": "function"
    },
    {
      "inputs": [
        {
          "internalType": "address",
          "name": "operator",
          "type": "address"
        },
        {
          "internalType": "bool",
          "name": "approved",
          "type": "bool"
        }
      ],
      "name": "setApprovalForAll",
      "outputs": [],
      "stateMutability": "nonpayable",
      "type": "function"
    },
    {
      "inputs": [
        {
          "internalType": "bytes4",
          "name": "interfaceId",
          "type": "bytes4"
        }
      ],
      "name": "supportsInterface",
      "outputs": [
        {
          "internalType": "bool",
          "name": "",
          "type": "bool"
        }
      ],
      "stateMutability": "view",
      "type": "function"
    },
    {
      "inputs": [],
      "name": "symbol",
      "outputs": [
        {
          "internalType": "string",
          "name": "",
          "type": "string"
        }
      ],
      "stateMutability": "view",
      "type": "function"
    },
    {
      "inputs": [
        {
          "internalType": "uint256",
          "name": "tokenId",
          "type": "uint256"
        }
      ],
      "name": "tokenURI",
      "outputs": [
        {
          "internalType": "string",
          "name": "",
          "type": "string"
        }
      ],
      "stateMutability": "view",
      "type": "function"
    },
    {
      "inputs": [
        {
          "internalType": "address",
          "name": "from",
          "type": "address"
        },
        {
          "internalType": "address",
          "name": "to",
          "type": "address"
        },
        {
          "internalType": "uint256",
          "name": "tokenId",
          "type": "uint256"
        }
      ],
      "name": "transferFrom",
      "outputs": [],
      "stateMutability": "nonpayable",
      "type": "function"
    },
    {
      "inputs": [
        {
          "internalType": "address",
          "name": "newOwner",
          "type": "address"
        }
      ],
      "name": "transferOwnership",
      "outputs": [],
      "stateMutability": "nonpayable",
      "type": "function"
    }
  ],
  "bytecode": "0x60806040526005600660146101000a81548161ffff021916908361ffff1602179055503480156200002f57600080fd5b50336040518060400160405280600581526020017f5461736b790000000000000000000000000000000000000000000000000000008152506040518060400160405280600381526020017f54534b00000000000000000000000000000000000000000000000000000000008152508160009081620000ae919062000490565b508060019081620000c0919062000490565b505050600073ffffffffffffffffffffffffffffffffffffffff168173ffffffffffffffffffffffffffffffffffffffff1603620001385760006040517f1e4fbdf70000000000000000000000000000000000000000000000000000000081526004016200012f9190620005bc565b60405180910390fd5b62000149816200015060201b60201c565b50620005d9565b6000600660009054906101000a900473ffffffffffffffffffffffffffffffffffffffff16905081600660006101000a81548173ffffffffffffffffffffffffffffffffffffffff021916908373ffffffffffffffffffffffffffffffffffffffff1602179055508173ffffffffffffffffffffffffffffffffffffffff168173ffffffffffffffffffffffffffffffffffffffff167f8be0079c531659141344cd1fd0a4f28419497f9722a3daafe3b4186f6b6457e060405160405180910390a35050565b600081519050919050565b7f4e487b7100000000000000000000000000000000000000000000000000000000600052604160045260246000fd5b7f4e487b7100000000000000000000000000000000000000000000000000000000600052602260045260246000fd5b600060028204905060018216806200029857607f821691505b602082108103620002ae57620002ad62000250565b5b50919050565b60008190508160005260206000209050919050565b60006020601f8301049050919050565b600082821b905092915050565b600060088302620003187fffffffffffffffffffffffffffffffffffffffffffffffffffffffffffffffff82620002d9565b620003248683620002d9565b95508019841693508086168417925050509392505050565b6000819050919050565b6000819050919050565b6000620003716200036b62000365846200033c565b62000346565b6200033c565b9050919050565b6000819050919050565b6200038d8362000350565b620003a56200039c8262000378565b848454620002e6565b825550505050565b600090565b620003bc620003ad565b620003c981848462000382565b505050565b5b81811015620003f157620003e5600082620003b2565b600181019050620003cf565b5050565b601f82111562000440576200040a81620002b4565b6200041584620002c9565b8101602085101562000425578190505b6200043d6200043485620002c9565b830182620003ce565b50505b505050565b600082821c905092915050565b6000620004656000198460080262000445565b1980831691505092915050565b600062000480838362000452565b9150826002028217905092915050565b6200049b8262000216565b67ffffffffffffffff811115620004b757620004b662000221565b5b620004c382546200027f565b620004d0828285620003f5565b600060209050601f831160018114620005085760008415620004f3578287015190505b620004ff858262000472565b8655506200056f565b601f1984166200051886620002b4565b60005b8281101562000542578489015182556001820191506020850194506020810190506200051b565b868310156200056257848901516200055e601f89168262000452565b8355505b6001600288020188555050505b505050505050565b600073ffffffffffffffffffffffffffffffffffffffff82169050919050565b6000620005a48262000577565b9050919050565b620005b68162000597565b82525050565b6000602082019050620005d36000830184620005ab565b92915050565b61224780620005e96000396000f3fe608060405234801561001057600080fd5b506004361061010b5760003560e01c806370a08231116100a2578063a22cb46511610071578063a22cb465146102a4578063b88d4fde146102c0578063c87b56dd146102dc578063e985e9c51461030c578063f2fde38b1461033c5761010b565b806370a082311461022e578063715018a61461025e5780638da5cb5b1461026857806395d89b41146102865761010b565b806323b872dd116100de57806323b872dd146101aa57806340d097c3146101c657806342842e0e146101e25780636352211e146101fe5761010b565b806301ffc9a71461011057806306fdde0314610140578063081812fc1461015e578063095ea7b31461018e575b600080fd5b61012a60048036038101906101259190611914565b610358565b604051610137919061195c565b60405180910390f35b61014861043a565b6040516101559190611a07565b60405180910390f35b61017860048036038101906101739190611a5f565b6104cc565b6040516101859190611acd565b60405180910390f35b6101a860048036038101906101a39190611b14565b6104e8565b005b6101c460048036038101906101bf9190611b54565b6104fe565b005b6101e060048036038101906101db9190611ba7565b610600565b005b6101fc60048036038101906101f79190611b54565b61068a565b005b61021860048036038101906102139190611a5f565b6106aa565b6040516102259190611acd565b60405180910390f35b61024860048036038101906102439190611ba7565b6106bc565b6040516102559190611be3565b60405180910390f35b610266610776565b005b61027061078a565b60405161027d9190611acd565b60405180910390f35b61028e6107b4565b60405161029b9190611a07565b60405180910390f35b6102be60048036038101906102b99190611c2a565b610846565b005b6102da60048036038101906102d59190611d9f565b61085c565b005b6102f660048036038101906102f19190611a5f565b610879565b6040516103039190611a07565b60405180910390f35b61032660048036038101906103219190611e22565b6108bd565b604051610333919061195c565b60405180910390f35b61035660048036038101906103519190611ba7565b610951565b005b60007f80ac58cd000000000000000000000000000000000000000000000000000000007bffffffffffffffffffffffffffffffffffffffffffffffffffffffff1916827bffffffffffffffffffffffffffffffffffffffffffffffffffffffff1916148061042357507f5b5e139f000000000000000000000000000000000000000000000000000000007bffffffffffffffffffffffffffffffffffffffffffffffffffffffff1916827bffffffffffffffffffffffffffffffffffffffffffffffffffffffff1916145b806104335750610432826109d7565b5b9050919050565b60606000805461044990611e91565b80601f016020809104026020016040519081016040528092919081815260200182805461047590611e91565b80156104c25780601f10610497576101008083540402835291602001916104c2565b820191906000526020600020905b8154815290600101906020018083116104a557829003601f168201915b5050505050905090565b60006104d782610a41565b506104e182610ac9565b9050919050565b6104fa82826104f5610b06565b610b0e565b5050565b600073ffffffffffffffffffffffffffffffffffffffff168273ffffffffffffffffffffffffffffffffffffffff16036105705760006040517f64a0ae920000000000000000000000000000000000000000000000000000000081526004016105679190611acd565b60405180910390fd5b6000610584838361057f610b06565b610b20565b90508373ffffffffffffffffffffffffffffffffffffffff168173ffffffffffffffffffffffffffffffffffffffff16146105fa578382826040517f64283d7b0000000000000000000000000000000000000000000000000000000081526004016105f193929190611ec2565b60405180910390fd5b50505050565b610608610d3a565b600660149054906101000a900461ffff1661ffff166007541115610661576040517f08c379a000000000000000000000000000000000000000000000000000000000815260040161065890611f45565b60405180910390fd5b60006007600081548092919061067690611f94565b9190505590506106868282610dc1565b5050565b6106a58383836040518060200160405280600081525061085c565b505050565b60006106b582610a41565b9050919050565b60008073ffffffffffffffffffffffffffffffffffffffff168273ffffffffffffffffffffffffffffffffffffffff160361072f5760006040517f89c62b640000000000000000000000000000000000000000000000000000000081526004016107269190611acd565b60405180910390fd5b600360008373ffffffffffffffffffffffffffffffffffffffff1673ffffffffffffffffffffffffffffffffffffffff168152602001908152602001600020549050919050565b61077e610d3a565b6107886000610ddf565b565b6000600660009054906101000a900473ffffffffffffffffffffffffffffffffffffffff16905090565b6060600180546107c390611e91565b80601f01602080910402602001604051908101604052809291908181526020018280546107ef90611e91565b801561083c5780601f106108115761010080835404028352916020019161083c565b820191906000526020600020905b81548152906001019060200180831161081f57829003601f168201915b5050505050905090565b610858610851610b06565b8383610ea5565b5050565b6108678484846104fe565b61087384848484611014565b50505050565b606061088482610a41565b5061088d6111cb565b610896836111eb565b6040516020016108a7929190612064565b6040516020818303038152906040529050919050565b6000600560008473ffffffffffffffffffffffffffffffffffffffff1673ffffffffffffffffffffffffffffffffffffffff16815260200190815260200160002060008373ffffffffffffffffffffffffffffffffffffffff1673ffffffffffffffffffffffffffffffffffffffff16815260200190815260200160002060009054906101000a900460ff16905092915050565b610959610d3a565b600073ffffffffffffffffffffffffffffffffffffffff168173ffffffffffffffffffffffffffffffffffffffff16036109cb5760006040517f1e4fbdf70000000000000000000000000000000000000000000000000000000081526004016109c29190611acd565b60405180910390fd5b6109d481610ddf565b50565b60007f01ffc9a7000000000000000000000000000000000000000000000000000000007bffffffffffffffffffffffffffffffffffffffffffffffffffffffff1916827bffffffffffffffffffffffffffffffffffffffffffffffffffffffff1916149050919050565b600080610a4d836112b9565b9050600073ffffffffffffffffffffffffffffffffffffffff168173ffffffffffffffffffffffffffffffffffffffff1603610ac057826040517f7e273289000000000000000000000000000000000000000000000000000000008152600401610ab79190611be3565b60405180910390fd5b80915050919050565b60006004600083815260200190815260200160002060009054906101000a900473ffffffffffffffffffffffffffffffffffffffff169050919050565b600033905090565b610b1b83838360016112f6565b505050565b600080610b2c846112b9565b9050600073ffffffffffffffffffffffffffffffffffffffff168373ffffffffffffffffffffffffffffffffffffffff1614610b6e57610b6d8184866114bb565b5b600073ffffffffffffffffffffffffffffffffffffffff168173ffffffffffffffffffffffffffffffffffffffff1614610bff57610bb06000856000806112f6565b6001600360008373ffffffffffffffffffffffffffffffffffffffff1673ffffffffffffffffffffffffffffffffffffffff168152602001908152602001600020600082825403925050819055505b600073ffffffffffffffffffffffffffffffffffffffff168573ffffffffffffffffffffffffffffffffffffffff1614610c82576001600360008773ffffffffffffffffffffffffffffffffffffffff1673ffffffffffffffffffffffffffffffffffffffff168152602001908152602001600020600082825401925050819055505b846002600086815260200190815260200160002060006101000a81548173ffffffffffffffffffffffffffffffffffffffff021916908373ffffffffffffffffffffffffffffffffffffffff160217905550838573ffffffffffffffffffffffffffffffffffffffff168273ffffffffffffffffffffffffffffffffffffffff167fddf252ad1be2c89b69c2b068fc378daa952ba7f163c4a11628f55a4df523b3ef60405160405180910390a4809150509392505050565b610d42610b06565b73ffffffffffffffffffffffffffffffffffffffff16610d6061078a565b73ffffffffffffffffffffffffffffffffffffffff1614610dbf57610d83610b06565b6040517f118cdaa7000000000000000000000000000000000000000000000000000000008152600401610db69190611acd565b60405180910390fd5b565b610ddb82826040518060200160405280600081525061157f565b5050565b6000600660009054906101000a900473ffffffffffffffffffffffffffffffffffffffff16905081600660006101000a81548173ffffffffffffffffffffffffffffffffffffffff021916908373ffffffffffffffffffffffffffffffffffffffff1602179055508173ffffffffffffffffffffffffffffffffffffffff168173ffffffffffffffffffffffffffffffffffffffff167f8be0079c531659141344cd1fd0a4f28419497f9722a3daafe3b4186f6b6457e060405160405180910390a35050565b600073ffffffffffffffffffffffffffffffffffffffff168273ffffffffffffffffffffffffffffffffffffffff1603610f1657816040517f5b08ba18000000000000000000000000000000000000000000000000000000008152600401610f0d9190611acd565b60405180910390fd5b80600560008573ffffffffffffffffffffffffffffffffffffffff1673ffffffffffffffffffffffffffffffffffffffff16815260200190815260200160002060008473ffffffffffffffffffffffffffffffffffffffff1673ffffffffffffffffffffffffffffffffffffffff16815260200190815260200160002060006101000a81548160ff0219169083151502179055508173ffffffffffffffffffffffffffffffffffffffff168373ffffffffffffffffffffffffffffffffffffffff167f17307eab39ab6107e8899845ad3d59bd9653f200f220920489ca2b5937696c3183604051611007919061195c565b60405180910390a3505050565b60008373ffffffffffffffffffffffffffffffffffffffff163b11156111c5578273ffffffffffffffffffffffffffffffffffffffff1663150b7a02611058610b06565b8685856040518563ffffffff1660e01b815260040161107a94939291906120e8565b6020604051808303816000875af19250505080156110b657506040513d601f19601f820116820180604052508101906110b39190612149565b60015b61113a573d80600081146110e6576040519150601f19603f3d011682016040523d82523d6000602084013e6110eb565b606091505b50600081510361113257836040517f64a0ae920000000000000000000000000000000000000000000000000000000081526004016111299190611acd565b60405180910390fd5b805181602001fd5b63150b7a0260e01b7bffffffffffffffffffffffffffffffffffffffffffffffffffffffff1916817bffffffffffffffffffffffffffffffffffffffffffffffffffffffff1916146111c357836040517f64a0ae920000000000000000000000000000000000000000000000000000000081526004016111ba9190611acd565b60405180910390fd5b505b50505050565b60606040518060800160405280604381526020016121cf60439139905090565b6060600060016111fa8461159b565b01905060008167ffffffffffffffff81111561121957611218611c74565b5b6040519080825280601f01601f19166020018201604052801561124b5781602001600182028036833780820191505090505b509050600082602001820190505b6001156112ae578080600190039150507f3031323334353637383961626364656600000000000000000000000000000000600a86061a8153600a85816112a2576112a1612176565b5b04945060008503611259575b819350505050919050565b60006002600083815260200190815260200160002060009054906101000a900473ffffffffffffffffffffffffffffffffffffffff169050919050565b808061132f5750600073ffffffffffffffffffffffffffffffffffffffff168273ffffffffffffffffffffffffffffffffffffffff1614155b1561146357600061133f84610a41565b9050600073ffffffffffffffffffffffffffffffffffffffff168373ffffffffffffffffffffffffffffffffffffffff16141580156113aa57508273ffffffffffffffffffffffffffffffffffffffff168173ffffffffffffffffffffffffffffffffffffffff1614155b80156113bd57506113bb81846108bd565b155b156113ff57826040517fa9fbf51f0000000000000000000000000000000000000000000000000000000081526004016113f69190611acd565b60405180910390fd5b811561146157838573ffffffffffffffffffffffffffffffffffffffff168273ffffffffffffffffffffffffffffffffffffffff167f8c5be1e5ebec7d5bd14f71427d1e84f3dd0314c0f7b2291e5b200ac8c7c3b92560405160405180910390a45b505b836004600085815260200190815260200160002060006101000a81548173ffffffffffffffffffffffffffffffffffffffff021916908373ffffffffffffffffffffffffffffffffffffffff16021790555050505050565b6114c68383836116ee565b61157a57600073ffffffffffffffffffffffffffffffffffffffff168373ffffffffffffffffffffffffffffffffffffffff160361153b57806040517f7e2732890000000000000000000000000000000000000000000000000000000081526004016115329190611be3565b60405180910390fd5b81816040517f177e802f0000000000000000000000000000000000000000000000000000000081526004016115719291906121a5565b60405180910390fd5b505050565b61158983836117af565b6115966000848484611014565b505050565b600080600090507a184f03e93ff9f4daa797ed6e38ed64bf6a1f01000000000000000083106115f9577a184f03e93ff9f4daa797ed6e38ed64bf6a1f01000000000000000083816115ef576115ee612176565b5b0492506040810190505b6d04ee2d6d415b85acef81000000008310611636576d04ee2d6d415b85acef8100000000838161162c5761162b612176565b5b0492506020810190505b662386f26fc10000831061166557662386f26fc10000838161165b5761165a612176565b5b0492506010810190505b6305f5e100831061168e576305f5e100838161168457611683612176565b5b0492506008810190505b61271083106116b35761271083816116a9576116a8612176565b5b0492506004810190505b606483106116d657606483816116cc576116cb612176565b5b0492506002810190505b600a83106116e5576001810190505b80915050919050565b60008073ffffffffffffffffffffffffffffffffffffffff168373ffffffffffffffffffffffffffffffffffffffff16141580156117a657508273ffffffffffffffffffffffffffffffffffffffff168473ffffffffffffffffffffffffffffffffffffffff161480611767575061176684846108bd565b5b806117a557508273ffffffffffffffffffffffffffffffffffffffff1661178d83610ac9565b73ffffffffffffffffffffffffffffffffffffffff16145b5b90509392505050565b600073ffffffffffffffffffffffffffffffffffffffff168273ffffffffffffffffffffffffffffffffffffffff16036118215760006040517f64a0ae920000000000000000000000000000000000000000000000000000000081526004016118189190611acd565b60405180910390fd5b600061182f83836000610b20565b9050600073ffffffffffffffffffffffffffffffffffffffff168173ffffffffffffffffffffffffffffffffffffffff16146118a35760006040517f73c6ac6e00000000000000000000000000000000000000000000000000000000815260040161189a9190611acd565b60405180910390fd5b505050565b6000604051905090565b600080fd5b600080fd5b60007fffffffff0000000000000000000000000000000000000000000000000000000082169050919050565b6118f1816118bc565b81146118fc57600080fd5b50565b60008135905061190e816118e8565b92915050565b60006020828403121561192a576119296118b2565b5b6000611938848285016118ff565b91505092915050565b60008115159050919050565b61195681611941565b82525050565b6000602082019050611971600083018461194d565b92915050565b600081519050919050565b600082825260208201905092915050565b60005b838110156119b1578082015181840152602081019050611996565b60008484015250505050565b6000601f19601f8301169050919050565b60006119d982611977565b6119e38185611982565b93506119f3818560208601611993565b6119fc816119bd565b840191505092915050565b60006020820190508181036000830152611a2181846119ce565b905092915050565b6000819050919050565b611a3c81611a29565b8114611a4757600080fd5b50565b600081359050611a5981611a33565b92915050565b600060208284031215611a7557611a746118b2565b5b6000611a8384828501611a4a565b91505092915050565b600073ffffffffffffffffffffffffffffffffffffffff82169050919050565b6000611ab782611a8c565b9050919050565b611ac781611aac565b82525050565b6000602082019050611ae26000830184611abe565b92915050565b611af181611aac565b8114611afc57600080fd5b50565b600081359050611b0e81611ae8565b92915050565b60008060408385031215611b2b57611b2a6118b2565b5b6000611b3985828601611aff565b9250506020611b4a85828601611a4a565b9150509250929050565b600080600060608486031215611b6d57611b6c6118b2565b5b6000611b7b86828701611aff565b9350506020611b8c86828701611aff565b9250506040611b9d86828701611a4a565b9150509250925092565b600060208284031215611bbd57611bbc6118b2565b5b6000611bcb84828501611aff565b91505092915050565b611bdd81611a29565b82525050565b6000602082019050611bf86000830184611bd4565b92915050565b611c0781611941565b8114611c1257600080fd5b50565b600081359050611c2481611bfe565b92915050565b60008060408385031215611c4157611c406118b2565b5b6000611c4f85828601611aff565b9250506020611c6085828601611c15565b9150509250929050565b600080fd5b600080fd5b7f4e487b7100000000000000000000000000000000000000000000000000000000600052604160045260246000fd5b611cac826119bd565b810181811067ffffffffffffffff82111715611ccb57611cca611c74565b5b80604052505050565b6000611cde6118a8565b9050611cea8282611ca3565b919050565b600067ffffffffffffffff821115611d0a57611d09611c74565b5b611d13826119bd565b9050602081019050919050565b82818337600083830152505050565b6000611d42611d3d84611cef565b611cd4565b905082815260208101848484011115611d5e57611d5d611c6f565b5b611d69848285611d20565b509392505050565b600082601f830112611d8657611d85611c6a565b5b8135611d96848260208601611d2f565b91505092915050565b60008060008060808587031215611db957611db86118b2565b5b6000611dc787828801611aff565b9450506020611dd887828801611aff565b9350506040611de987828801611a4a565b925050606085013567ffffffffffffffff811115611e0a57611e096118b7565b5b611e1687828801611d71565b91505092959194509250565b60008060408385031215611e3957611e386118b2565b5b6000611e4785828601611aff565b9250506020611e5885828601611aff565b9150509250929050565b7f4e487b7100000000000000000000000000000000000000000000000000000000600052602260045260246000fd5b60006002820490506001821680611ea957607f821691505b602082108103611ebc57611ebb611e62565b5b50919050565b6000606082019050611ed76000830186611abe565b611ee46020830185611bd4565b611ef16040830184611abe565b949350505050565b7f546f6b656e206361702065786365656465640000000000000000000000000000600082015250565b6000611f2f601283611982565b9150611f3a82611ef9565b602082019050919050565b60006020820190508181036000830152611f5e81611f22565b9050919050565b7f4e487b7100000000000000000000000000000000000000000000000000000000600052601160045260246000fd5b6000611f9f82611a29565b91507fffffffffffffffffffffffffffffffffffffffffffffffffffffffffffffffff8203611fd157611fd0611f65565b5b600182019050919050565b600081905092915050565b6000611ff282611977565b611ffc8185611fdc565b935061200c818560208601611993565b80840191505092915050565b7f2e6a736f6e000000000000000000000000000000000000000000000000000000600082015250565b600061204e600583611fdc565b915061205982612018565b600582019050919050565b60006120708285611fe7565b915061207c8284611fe7565b915061208782612041565b91508190509392505050565b600081519050919050565b600082825260208201905092915050565b60006120ba82612093565b6120c4818561209e565b93506120d4818560208601611993565b6120dd816119bd565b840191505092915050565b60006080820190506120fd6000830187611abe565b61210a6020830186611abe565b6121176040830185611bd4565b818103606083015261212981846120af565b905095945050505050565b600081519050612143816118e8565b92915050565b60006020828403121561215f5761215e6118b2565b5b600061216d84828501612134565b91505092915050565b7f4e487b7100000000000000000000000000000000000000000000000000000000600052601260045260246000fd5b60006040820190506121ba6000830185611abe565b6121c76020830184611bd4565b939250505056fe697066733a2f2f6261667962656967636a6769696176327061627a6e6d66376237723373626d7632687a753273376b666179657277706d71623574376c7a32796e752fa2646970667358221220b2e57437b73a5aba6774f066f92f97ed8c839a922176ad5f9b6c06dd8970487264736f6c63430008180033",
  "linkReferences": {},
  "deployedLinkReferences": {}
}